:040000000BEF00F012
:100008004F82FACF03F0FBCF04F08BED04F05AEFE8
:0200180007F0EF
:1003000000010002000400080010002000400080EE
:10031000000001000200040008001000200040005E
:10032000801E110A11000000000000000000000003
:1003300000000000000000000000000000000000BD
:10034000000001010202020203030303030303038B
:100350001E10BE03A0108C0A8200048E00048811B7
:100360004C0E1E114661696C6564206F6E206174CD
:1003700074656D707420746F20506F73740A00463A
:1003800061696C6564206F6E204E554C4C20706F17
:10039000696E7465720A004661696C656420496E15
:1003A000697469616C697A6174696F6E0A004F746F
:1003B000686572204661696C7572650A0000020EFC
:1003C00000019B19D8A405D0A2EC08F0CFEC05F0F1
:1003D000B3D0030E00019B19D8A411D000019C5189
:1003E00000019D11D8A4A8D0460E116E000E126E09
:1003F000010E136E89EC07F0000E3F6E9DD0050EC6
:1004000000019B19D8B476D097D0000E3F6E000E35
:10041000D8EC07F0460E116E000E126E010E136E30
:1004200089EC07F089D0000E3F6E000ED8EC07F083
:100430004E0E116E000E126E010E136E89EC07F057
:100440007BD0000E3F6E000ED8EC07F04D0E116E03
:10045000000E126E010E136E89EC07F06DD0010EC6
:100460003F6E000E126EFA0E116E000EF1EC06F0E9
:10047000470E116E000E126E020E136E89EC07F01D
:100480005BD03F04D8A458D0000E126EFA0E116E45
:10049000000EF1EC06F0490E116E000E126E020E07
:1004A000136E89EC07F048D03F04D8A445D0000E65
:1004B000126EFA0E116E000EF1EC06F04B0E116E7C
:1004C000000E126E020E136E89EC07F035D03F0459
:1004D000D8A432D0000E126EFA0E116E000EF1EC9E
:1004E00006F0AA0E116E000E126E020E136E89EC4B
:1004F00007F022D020EE9CF0DECF9EF0DDCF9FF003
:1005000000019F51000AD8A417D000019E513F0A54
:10051000D8B4DDD7600AD8B4C7D7300AD8B4B1D7B9
:10052000180AD8B49CD70C0AD8B48BD7060AD8B40A
:100530007AD7030AD8B469D7000E0001A06FA0C013
:100540009BF0A1C09CF0A2C09DF012001DC025F040
:100550001EC026F020EE02F02550D9262650DA22C1
:10056000DF50D8B45ED0F2CF23F0F29E20EE01F03F
:100570002550D9262650DA22DF50216E010E212483
:10058000176E186A000E1822000E1A6E030E196EEE
:1005900063EC08F017501D24D96E18501E20DA6E37
:1005A0001FC0E1FF20C0E2FFDECFE6FFDECFE6FFA7
:1005B000DECFE6FF20EE01F02550D9262650DA22C4
:1005C000DF2A25C0D9FF26C0DAFF10EE01F0255042
:1005D000E1262650E222DE50E65CD8A016D020EEBE
:1005E00001F02550D9262650DA2225C0E1FF26C089
:1005F000E2FFE750116E10EE01F02550E126265083
:10060000E222E7503BEC08F0DF6E20EE02F02550CE
:10061000D9262650DA22DF06DF50246E23C0F2FFEF
:1006200012D01FC0D9FF20C0DAFF000EDF6E20EE0F
:1006300001F01F50D9262050DA22000EDE6E000E87
:10064000DD6E000E246E245012003A503B10D8B4D8
:1006500012003AC030F03BC031F030C011F031C070
:1006600012F011EC06F03D6E3D50020D600EF324C9
:10067000D96E000EF420DA6EDE06000EDD5ADE5072
:10068000DE10D8A43DD0030E2D6E3DC02EF02F6A93
:100690002DC09BF02EC09CF02FC09DF03D50020D50
:1006A000210EF324F66E030EF420F76E01D80CD061
:1006B0000500FA6E0900F550FD6E0900F550FE6E5A
:1006C000F850FF6EFA5012003D50020D010EF32457
:1006D000F66E030EF420F76E0900F5CF9EF00900C8
:1006E000F5CF9FF000019E1D0001A06F00019F1D2E
:1006F0000001A16F0001A0513A160001A1513B1663
:100700003D50020D010EF324F66E030EF420F76E39
:100710000900F5CF9EF00900F5CF9FF000019E1D66
:100720000001A06F00019F1D0001A16F0001A051F9
:1007300030160001A151311630503110D8B41200DA
:100740008CD79FC013F0A0C014F0A9EC08F0000EE5
:100750000001A16F010E0001A16501D066D000016A
:10076000A151040D500EF324F66E030EF420F76E23
:100770000900F5500900F510D8B413D00001A151BB
:10078000040D020EF326000EF422500EF324F66E32
:10079000030EF420F76E0900F5500900F510D8A4F7
:1007A00002D0030E12000001A151030D580EF324D4
:1007B000F66E030EF420F76E0900F5CF11F00A0073
:1007C000F5CF12F00001A151030D020EF326000E29
:1007D000F422580EF324F66E030EF420F76E080090
:1007E000F5CF13F0F4EC07F00001A151040D500E09
:1007F000F324F66E030EF420F76E01D80ED0050038
:10080000FA6E0900F550FD6E0900F550FE6EF850C5
:10081000FF6EFA500001A1511200E806D8B402D0D0
:10082000050E12000001A12B95D7000E120067D013
:1008300036C011F037C012F011EC06F00001A86FBD
:100840000001A851030D580EF324F66E030EF42098
:10085000F76E0900F5CF1DF00A00F5CF1EF0430E2C
:100860001F6E000E206EA6EC02F00009D8A41DD069
:100870000001A851020D010EF324F66E030EF420C0
:10088000F76E0900F5CFA4F00900F5CFA5F000013F
:10089000A41D0001A66F0001A51D0001A76F0001A6
:1008A000A65136160001A751371643C09BF044C02D
:1008B0009CF045C09DF00001A851040D020EF326E6
:1008C000000EF422500EF324F66E030EF420F76EA1
:1008D00001D80CD00500FA6E0900F550FD6E090034
:1008E000F550FE6EF850FF6EFA5012009B0ED96E56
:1008F000000EDA6EDF50D8B402D0020E120099EC6E
:1009000008F00009D8B404D036503710D8A490D7D6
:10091000B3EC07F0F4D70600E9CF05F0EACF06F014
:10092000E1CF07F0E2CF08F0D9CF09F0DACF0AF033
:10093000F3CF0BF0F4CF0CF0F6CF0DF0F7CF0EF0B5
:10094000F8CF0FF0F5CF10F09EA414D0BF50016E79
:10095000BE50326E01C033F0200E3224346E4E0E83
:100960003320356E3550BF6E34C0BEFF9E94422A90
:10097000384A392AA4A403D0A494C1EC08F0A4A056
:1009800003D0A490BAEC08F0A4AA03D0A49AC8ECAF
:1009900008F0A4AE03D0A49EC9EC08F010C0F5FF87
:1009A0000FC0F8FF0EC0F7FF0DC0F6FF0CC0F4FF3C
:1009B0000BC0F3FF0AC0DAFF09C0D9FF08C0E2FF8D
:1009C00007C0E1FF06C0EAFF05C0E9FF04C0FBFF66
:1009D00003C0FAFF4F9211001DC026F01EC027F081
:1009E00026C0D9FF27C0DAFF10EE02F02650E1261C
:1009F0002750E222DE50E65CD8B046D0F2CF25F098
:100A0000F29E26C0D9FF27C0DAFFDF50226E2250A7
:100A1000136E146A20EE02F02650D9262750DA22EF
:100A2000DF50236E20EE01F02650D9262750DA221F
:100A3000DF50246E24502324116E126A123682EC89
:100A400006F0010E1124176E000E1220186E000E13
:100A50001A6E030E196E63EC08F017501D24D96E40
:100A600018501E20DA6E1FC0DEFF20C0DEFF21C03E
:100A7000DEFF20EE02F02650D9262750DA22DF2AA8
:100A800025C0F2FF010E1200000E120035D0030E39
:100A900000019B19D8A437D0010E3E6E34D0060E4B
:100AA00000019B19D8A411D0000E126E020E116E17
:100AB000010EF1EC06F0000E3E6E9BC028F09CC0CB
:100AC00029F09DC02AF04AEC06F0050E00019B19A2
:100AD000D8A419D0000E126E020E116E010EF1ECA8
:100AE00006F0000E3E6E9BC028F09CC029F09DC011
:100AF0002AF04AEC06F007D03E50000AD8B4C7D717
:100B0000010AD8B4CCD7000E00019E6F9EC09BF0A6
:100B10009FC09CF0A0C09DF01200D388D38AD38CD4
:100B2000D3820F0EC16E9C0E0001A06F3F0E9F6F0F
:100B3000A1EC03F00001A96F0001A9510001D8A4A4
:100B400021D017EC04F00001A96F1CD0640E116EC7
:100B5000030E126E26EC08F021D07F0E116E030EEC
:100B6000126E26EC08F01AD0970E116E030E126E5C
:100B700026EC08F013D0AE0E116E030E126E26ECAA
:100B800008F00CD00001A951010AD8B4DFD7020A3D
:100B9000D8B4E3D7060AD8B4E7D7EDD7FFD7800E8D
:100BA0006F6E6EAEFED7200E736E718E7090708277
:100BB0007084709671907192719471967198719A17
:100BC000728072927294709C6094609A609C000E25
:100BD0000F01006F080E0F01016F000E0F01026F71
:100BE000010E0F01036F000E0F01186F000E0F01B1
:100BF000196F000E0F011A6F010E0F011B6F000E0F
:100C0000776E100E6F6E6EBEFED7A380A38AA38E82
:100C1000A490A49AA49EA384A4940F014097609EDC
:100C20001200800E186E030E1A6E1ABE31D01A50C2
:100C3000040DF3CF13F011C014F012C015F0132AF5
:100C400003D0D89015321432132EFBD714500F0B4B
:100C5000196E1950D8B41AD0FF0E136EFF0E146E11
:100C60001950156E166A1350152614501622410E8F
:100C70001524F66E030E1620F76E0800F5CF17F058
:100C80001A50040DF3501724186E02D01A06CDD74F
:100C900018501200000E00019A6F010E00019A65B3
:100CA00001D0120000019A51030D580EF324F66E84
:100CB000030EF420F76E0900F5CF1DF00A00F5CF02
:100CC0001EF028C01FF029C020F02AC021F0ECEC53
:100CD00004F0E806D8A4120000019A51020D010E9A
:100CE000F324F66E030EF420F76E0900F5CF2BF017
:100CF0000900F5CF2CF02B5036122C503712000182
:100D00009A2BCBD7000E166E12AE06D0116C121EA7
:100D1000D8B0122A010E166E14AE04D0136C141E35
:100D2000D8B0142A13501410D8B418D0010E156E70
:100D300004D0D89013361436152A14AEFAD71350AF
:100D4000115C14501258D8A004D01350115E1450E6
:100D5000125AD89014321332152EF1D71650D8B437
:100D600004D0116C121ED8B0122A11C011F012C09A
:100D700012F0120000019A6F020E00019A612FD04A
:100D800000019A51030D580EF324F66E030EF42061
:100D9000F76E0900F5CF1DF00A00F5CF1EF028C050
:100DA0001FF029C020F02AC021F0ECEC04F0E80686
:100DB000D8A415D000019A51020D010EF324F66E4D
:100DC000030EF420F76E0900F5CF2BF00900F5CFE4
:100DD0002CF02B5036122C503712010E1200000E40
:100DE0001200156E100E156012001550020D210E26
:100DF000F324F66E030EF420F76E0900F550090097
:100E0000F510D8B4120011501210D8B412001550B9
:100E1000020D600EF324D96E000EF420DA6E11C0BC
:100E2000DEFF12C0DDFF1550020D010EF324F66E39
:100E3000030EF420F76E0900F5CF13F00900F5CF8B
:100E400014F013503A1214503B121200000E00011D
:100E50009E6FBEEC08F00001A26F40500001A21985
:100E6000D8B423D0010E00019E6FA2C0A0F00001F3
:100E7000A16B7F0E0001A219D8B40CD0050E0001A1
:100E80009F6F9FC09BF0A0C09CF0A1C09DF085EC1F
:100E900008F00BD0060E00019F6F9FC09BF0A0C012
:100EA0009CF0A1C09DF085EC08F0A2C040F00001CC
:100EB0009E5112008C0EF66E110EF76E000EF86E3B
:100EC0000900F5CFAAF00900F5CFABF06C0EF66E75
:100ED000110EF76E000EF86E00EE47F010EE08F0FF
:100EE0000900F5CFEEFFE550E150FAE100EE60F0C9
:100EF0003A0EEE6AE806FDE100EE2DF01A0EEE6AFB
:100F0000E806FDE14F904F92000EF86E00018DEF64
:100F100005F00F01409713C045FF11C0D9FF12C063
:100F2000DAFFDF500F01466F010E136409D020EE87
:100F300001F01150D9261250DA22DF500F01476F0D
:100F4000000E0F01416F080E0F01426F000E0F01DE
:100F5000436F010E0F01446F0F0140810F01408369
:100F60000F0140871200000E0001A36F010E000167
:100F7000A36501D012000001A351020D5E0EF324FF
:100F8000F66E030EF420F76E01D80CD00500FA6E51
:100F90000900F550FD6E0900F550FE6EF850FF6E29
:100FA000FA501200E806D8B412000001A32BDED7D5
:100FB000156E0F0E156401D012001550020D010EB2
:100FC000F324F66E030EF420F76E0900F5CF11F04E
:100FD0000900F5CF12F0111C136E121C146E135081
:100FE0003A1614503B16120011C014F012C015F03E
:100FF000130414C0D9FF15C0DAFFDF6E20EE01F034
:101000001450D9261550DA22000EDF6E20EE02F0C1
:101010001450D9261550DA22000EDF6E120000019E
:101020009E6F9EC03CF0020E00019B6F9BC028F09B
:101030009CC029F09DC02AF03C50BAEC06F0E806AE
:10104000D8A402D0010E1200000E1200130E136E6F
:10105000000E146E03D01550C7EC08F011C0F6FF57
:1010600012C0F7FF114A122A0800F5CF15F01550EB
:10107000D8B41200F0D7126E080E136E000E146E64
:10108000D89012341434146ED89012361150145C67
:10109000D8A002D01150145E132EF2D714501200B3
:1010A000166E16C041F0B0EC08F0BEEC08F0406ED1
:1010B000000E3E6E000E126E020E116E010EF1EC6D
:1010C00006F0010E120017501902F3CF1BF0F4CFF7
:1010D0001CF017501A02F3501C2618501902F35036
:1010E0001C261BC017F01CC018F01200040E9D6EC9
:1010F000400EF26E0A0EBD6E010EBE6E000EBF6E89
:10110000210ECD6EF28CF28E12009BC028F09CC096
:1011100029F09DC02AF04150BAEC06F012009BC0A5
:1011200028F09CC029F09DC02AF03C50BAEC06F093
:10113000120003D025EC03F042064250D8A4FAD79F
:10114000010E1200000E816E000E8A6E939493863B
:10115000120013C011F014C012F076EC08F0120067
:10116000000E826E000E8B6E826812000300030177
:101170000302020160AE1200609E120082507F0BDB
:1011800012000F0140971200000E1200030312001C
:041190001200120037
:020000040020DA
:08000000FFFFFFFFFFFFFFFF00
:020000040030CA
:0E000000FF08191EFF8085FF0FC00FE00F40A4
:00000001FF
