:040000000BEF00F012
:100008004882FACF26F0FBCF27F03EED04F014EF3C
:0200180008F0EE
:1003000000010002000400080010002000400080EE
:10031000000001000200040008001000200040005E
:10032000800000000000000000000000000000004D
:1003300000000000000000000000000000000000BD
:10034000000001010202020203030303030303038B
:10035000F80FF4093C0004FA10C4104661696C659A
:1003600064206F6E20617474656D707420746F20EA
:10037000506F73740A004661696C6564206F6E206B
:100380004E554C4C20706F696E7465720A00466160
:10039000696C656420496E697469616C697A61741D
:1003A000696F6E0A004F74686572204661696C75EA
:0503B00072650A000067
:1003B6009BC0A3F09CC0A4F0000120EE02F0A35164
:1003C600D926A451DA22DF50D8B46FD0F2CFA1F0EB
:1003D600F29E000120EE01F0A351D926A451DA22A3
:1003E600DF5000019F6F010E00019F250001956FF0
:1003F6000001966B000E9623000E0001986F030E07
:10040600976FC7EC07F00001955100019B25D96E47
:100416000001965100019C21DA6E9DC0E1FF9EC04D
:10042600E2FFDECFE6FFDECFE6FFDECFE6FF00012E
:1004360020EE01F0A351D926A451DA22DF2AA3C067
:10044600D9FFA4C0DAFF000110EE01F0A351E126A6
:10045600A451E222DE50E65CD8A019D0000120EEBD
:1004660001F0A351D926A451DA22A3C0E1FFA4C00A
:10047600E2FFE75000018F6F000110EE01F0A3517B
:10048600E126A451E222E75087EC07F0DF6E000177
:1004960020EE02F0A351D926A451DA22DF06DF505E
:1004A6000001A26FA1C0F2FF14D09DC0D9FF9EC06B
:1004B600DAFF000EDF6E000120EE01F09D51D92615
:1004C6009E51DA22000EDE6E000EDD6E000E000179
:1004D600A26F0001A25112006BD085C08FF086C0BA
:1004E60090F04DEC05F00001A96F0001A951030D34
:1004F600540EF324F66E030EF420F76E0900F5CFC2
:100506009BF00A00F5CF9CF08C0E00019D6F000E4B
:1005160000019E6FDBEC01F00009D8A41FD000019A
:10052600A951020D010EF324F66E030EF420F76EA8
:100536000900F5CFA5F00900F5CFA6F00001A51D2D
:100546000001A76F0001A61D0001A86F0001A751B9
:10055600000185170001A851000186178CC08FF095
:100566008DC090F08EC091F00001A951040D020ECD
:10057600F326000EF422500EF324F66E030EF4203A
:10058600F76E01D80CD00500FA6E0900F550FD6E25
:100596000900F550FE6EF850FF6EFA5012008F0EED
:1005A600D96E000EDA6EDF50D8B402D0020E1200F9
:1005B60057EC08F00009D8B406D0000185510001B7
:1005C6008611D8A48AD762EC07F0F2D7B0C091F0B2
:1005D600B1C092F06DEC08F0000E0001B26F0001A0
:1005E600B2510001D8A466D00001B251040D500EDC
:1005F600F324F66E030EF420F76E0900F550090099
:10060600F510D8B413D00001B251040D020EF32632
:10061600000EF422500EF324F66E030EF420F76E4D
:100626000900F5500900F510D8A402D0030E1200F7
:100636000001B251030D540EF324F66E030EF4209E
:10064600F76E0900F5CF8FF00A00F5CF90F00001A4
:10065600B251030D020EF326000EF422540EF324BB
:10066600F66E030EF420F76E0800F5CF91F0A9ECB4
:1006760007F00001B251040D500EF324F66E030E7E
:10068600F420F76E01D80ED00500FA6E0900F55079
:10069600FD6E0900F550FE6EF850FF6EFA5000012F
:1006A600B2511200E806D8B402D0050E12000001BD
:1006B600B22B95D7000E12009BC0A4F09CC0A5F0EB
:1006C600A4C0D9FFA5C0DAFF000110EE02F0A451C4
:1006D600E126A551E222DE50E65CD8B05CD0F2CF2E
:1006E600A3F0F29EA4C0D9FFA5C0DAFFDF50000137
:1006F600A06F0001A0510001916F926B000120EEE6
:1007060002F0A451D926A551DA22DF500001A16FCB
:10071600000120EE01F0A451D926A551DA22DF50BE
:100726000001A26F0001A2510001A12500018F6FF7
:100736000001906B000190379FEC05F0010E00015F
:100746008F250001956F000E000190210001966F24
:10075600000E0001986F030E976FC7EC07F00001BB
:10076600955100019B25D96E0001965100019C21EF
:10077600DA6E9DC0DEFF9EC0DEFF9FC0DEFF000179
:1007860020EE02F0A451D926A551DA22DF2AA3C011
:10079600F2FF010E1200000E120000018751000147
:1007A6008811D8B4120087C083F088C084F083C053
:1007B6008FF084C090F04DEC05F00001896F0001C8
:1007C6008951020D600EF324D96E000EF420DA6E04
:1007D600DE06000EDD5ADE50DE10D8A426D0030E4B
:1007E6000001806F89C081F00001826B0001895190
:1007F600020D010EF324F66E030EF420F76E0900C7
:10080600F5CF99F00900F5CF9AF00001991D000186
:100816009B6F00019A1D00019C6F00019B51000116
:10082600871700019C510001881700018951020DAC
:10083600010EF324F66E030EF420F76E0900F5CFD1
:1008460099F00900F5CF9AF00001991D00019B6F00
:1008560000019A1D00019C6F00019B510001831746
:1008660000019C510001841700018351000184118D
:10087600D8B412009CD70600E9CF28F0EACF29F0B9
:10088600E1CF2AF0E2CF2BF0D9CF2CF0DACF2DF042
:10089600F3CF2EF0F4CF2FF0F6CF30F0F7CF31F0C4
:1008A600F8CF32F0F5CF33F09EA415D0BF50246EAA
:1008B600BE50346E24C035F0200E3424366E4E0EF3
:1008C6003520376E3750BF6E36C0BEFF9E9400018E
:1008D6008B2B384A392AA4A403D0A4947AEC08F0C6
:1008E600A4A003D0A49074EC08F0A4AA03D0A49A00
:1008F60080EC08F0A4AE03D0A49E81EC08F033C0CF
:10090600F5FF32C0F8FF31C0F7FF30C0F6FF2FC049
:10091600F4FF2EC0F3FF2DC0DAFF2CC0D9FF2BC089
:10092600E2FF2AC0E1FF29C0EAFF28C0E9FF27C08D
:10093600FBFF26C0FAFF489211000DC016F00EC04C
:1009460017F016C0D9FF17C0DAFF10EE02F01650E6
:10095600E1261750E222DE50E65CD8B046D0F2CF50
:1009660015F0F29E16C0D9FF17C0DAFFDF50126EDF
:100976001250036E046A20EE02F01650D926175064
:10098600DA22DF50136E20EE01F01650D9261750EA
:10099600DA22DF50146E14501324016E026A0236F6
:1009A600F5EC06F0010E0124076E000E0220086E1B
:1009B600000E0A6E030E096E27EC08F007500D2490
:1009C600D96E08500E20DA6E0FC0DEFF10C0DEFFB3
:1009D60011C0DEFF20EE02F01650D9261750DA229B
:1009E600DF2A15C0F2FF010E1200000E12002ED0F3
:1009F60049EC08F03AEC06F043D08980899202D09F
:100A060089908982899403D089908992898489966C
:100A160004D08990899289948986899805D089908D
:100A26008992899489868988899A06D0899089923B
:100A3600899489868998898A8A9022D08990899210
:100A4600899489868998899A8A801AD000018F515B
:100A5600020AD8B4CDD7070AD8B4CFD7030AD8B478
:100A6600D3D7010AD8B4CCD70F0AD8B4D2D7010A43
:100A7600D8B4D5D7030AD8B4D9D7010AD8B4DED7A3
:100A8600000E0001926F92C08FF093C090F094C058
:100A960091F01200800E0001966F030E0001986F10
:100AA600000198BF46D000019851040DF3CF91F094
:100AB6008FC092F090C093F00001912B04D00001FA
:100AC600D890933392330001912FF9D700019251B8
:100AD6000F0B0001976F000197510001D8B426D083
:100AE600FF0E0001916FFF0E0001926F00019751FA
:100AF6000001936F946B000191510001932700014F
:100B0600925100019423410E00019325F66E030EC7
:100B16009421F76E0800F5CF95F000019851040D69
:100B2600F350000195250001966F03D00001980748
:100B3600B7D7000196511200000E0001946F000114
:100B460090AF08D000018F6D901FD8B0902B010E8A
:100B56000001946F000192AF05D00001916D921FC4
:100B6600D8B0922B0001915100019211D8B426D031
:100B7600010E0001936F06D00001D890913792378D
:100B86000001932B000192AFF7D7000191510001AC
:100B96008F5D0001925100019059D8A008D0000144
:100BA600915100018F5F000192510001905B00019D
:100BB600D890923391330001932FE7D700019451D7
:100BC6000001D8B405D000018F6D901FD8B0902BCE
:100BD6008FC08FF090C090F01200D388D38AD38C48
:100BE600D3820F0EC16E9C0E0001B16F3F0EB06F27
:100BF600E9EC02F00001B36F0001B3510001D8A483
:100C060029D06FEC02F00001B36F24D05B0E000117
:100C16008F6F030E0001906FE2EC07F027D0760E7F
:100C260000018F6F030E0001906FE2EC07F01ED0FB
:100C36008E0E00018F6F030E0001906FE2EC07F03D
:100C460015D0A50E00018F6F030E0001906FE2EC28
:100C560007F00CD00001B351010AD8B4D7D7020A65
:100C6600D8B4DDD7060AD8B4E3D7EBD7FFD7800EC2
:100C76006F6E6EAEFED7200E736E718E70907082A0
:100C86007084709671907192719471967198719A40
:100C9600728072927294709C6094609A609C000E4E
:100CA6000F01006F080E0F01016F000E0F01026F9A
:100CB600010E0F01036F000E0F01186F000E0F01DA
:100CC600196F000E0F011A6F010E0F011B6F000E38
:100CD600776E100E6F6E6EBEFED7A380A38AA38EAC
:100CE600A490A49AA49EA384A4940F014097609E06
:100CF60012006150D8A41200180E6218D8A412006F
:100D06006350D8A412006404D8A4120019D0050EAA
:100D160015D0060E13D0070E11D06750D8A402D0F6
:100D2600080E0CD0020E6718D8A402D0090E06D001
:100D36006704D8A402D00A0E01D00B0E216E0DD086
:100D46006650000AD8B4E3D7010AD8B4E4D7030A38
:100D5600D8B4DFD7010AD8B4E0D721C01EF022C02C
:100D66001FF023C020F062EC08F012000001AB6F08
:100D76000001AB510001D8A433D00001AB51030DE3
:100D8600540EF324F66E030EF420F76E0900F5CF29
:100D96009BF00A00F5CF9CF0A6C09DF0A7C09EF080
:100DA600A8C09FF05FEC03F0E806D8A419D00001B4
:100DB600AB51020D010EF324F66E030EF420F76E0E
:100DC6000900F5CFA9F00900F5CFAAF00001A95155
:100DD600000185130001AA5100018613010E1200BD
:100DE600000E1200000E066E02AE06D0016C021E48
:100DF600D8B0022A010E066E04AE04D0036C041E9F
:100E0600D8B0042A03500410D8B418D0010E056EC9
:100E160004D0D89003360436052A04AEFAD7035018
:100E2600015C04500258D8A004D00350015E04505F
:100E3600025AD89004320332052EF1D70650D8B4A0
:100E460004D0016C021ED8B0022A01C001F002C013
:100E560002F012001D6E1D50D8A42FD01D50030D98
:100E6600540EF324F66E030EF420F76E0900F5CF48
:100E76000DF00A00F5CF0EF018C00FF019C010F0F3
:100E86001AC011F0A0EC04F0E806D8A416D01D5044
:100E9600020D010EF324F66E030EF420F76E090020
:100EA600F5CF1BF00900F5CF1CF01B500001851390
:100EB6001C5000018613010E1200000E1200000ED7
:100EC60000018F6F00018F510001D8A412000001AC
:100ED6008F51020D570EF324F66E030EF420F76EB3
:100EE60001D80CD00500FA6E0900F550FD6E090018
:100EF600F550FE6EF850FF6EFA501200E806D8B4B0
:100F0600120000018F2BDED70001906F080E000142
:100F1600916F000E0001926FD8900001903500018C
:100F260092350001926F0001D890903700018F51E1
:100F36000001925DD8A004D000018F510001925F9C
:100F46000001912FE9D70001925112008FC092F053
:100F560090C093F00001910592C0D9FF93C0DAFFCB
:100F6600DF6E000120EE01F09251D9269351DA226C
:100F7600000EDF6E000120EE02F09251D926935149
:100F8600DA22000EDF6E1200000195510001970370
:100F9600F3CF99F0F4CF9AF0000195510001980330
:100FA600F35000019A270001965100019703F35070
:100FB60000019A2799C095F09AC096F01200910EFA
:100FC6000001916F000E0001926F04D00001935151
:100FD6007FEC08F08FC0F6FF90C0F7FF00018F4B43
:100FE600902B0800F5CF93F000019351D8B412006E
:100FF600EDD70001AF6FAFC08AF0020E0001AC6FF3
:10100600ACC0A6F0ADC0A7F0AEC0A8F000018A51F2
:10101600B9EC06F0E806D8A402D0010E1200000EC4
:10102600120000EE60F02F0EEE6AE806FDE100EE1B
:1010360034F0140EEE6AE806FDE148904892000E80
:10104600F86E0001F0EF05F007500902F3CF0BF040
:10105600F4CF0CF007500A02F3500C260850090290
:10106600F3500C260BC007F00CC008F01200040E5B
:101076009D6E400EF26E0A0EBD6E010EBE6E000E25
:10108600BF6E210ECD6EF28CF28E1200000E816EB6
:10109600000E8A6E93949386000E806E000E896E03
:1010A600000E926E9390120004D0D0EC03F0000173
:1010B6008B0700018B51D8A4F8D7010E12001EC071
:1010C60018F01FC019F020C01AF000018A512DEC4B
:1010D60007F0120091C08FF092C090F03AEC08F041
:1010E600120060AE12007CEC06F0609E12000F014A
:0E10F60040971200000E1200120012001200AD
:020000040020DA
:08000000FFFFFFFFFFFFFFFF00
:020000040030CA
:0E000000FF08191EFF8085FF0FC00FE00F40A4
:00000001FF
